:020000040800F2
:1000000020090020D5000008D50900089705000840
:1000100000000000000000000000000000000000E0
:10002000000000000000000000000000290C000893
:100030000000000000000000D70900086B10000855
:10004000E7000008E7000008E7000008E7000008F4
:10005000E7000008E7000008E7000008E7000008E4
:10006000E7000008E7000008E7000008E7000008D4
:10007000E7000008E7000008E7000008E7000008C4
:10008000E7000008E700000800000000E7000008A3
:10009000E7000008E7000008E7000008E7000008A4
:1000A000E7000008E7000008E7000008E700000894
:1000B000E700000800000000E70000080000000062
:1000C0000348854600F046F800480047C51600087A
:1000D000200900200448804704480047FEE7FEE767
:1000E000FEE7FEE7FEE7FEE76D100008C10000082E
:1000F00030B50B46014600202022012409E00D46C0
:10010000D5409D4205D31D469540491B2546954047
:1001100040191546521E002DF1DC30BD03460B433D
:100120009B0703D009E008C9121F08C0042AFAD2AD
:1001300003E00B780370401C491C521EF9D2704733
:100140000321001D401E037812021A43491EF9D5EF
:1001500010467047064C0125064E05E0E36807CCC3
:100160002B430C3C98471034B442F7D3FFF7ACFF55
:1001700044190008641900080022411802E00378BD
:100180009A18401C8842FAD3D0B2704730B5044662
:100190000020651803E02178641C01F00BF8AC42E4
:1001A000F9D3002101F006F8002101F003F830BD79
:1001B00038B5054604206946087000F077F9352007
:1001C00000F012F8002408E0284600F013F8694611
:1001D0000870641C2406240E03D1684600780428A5
:1001E000F2D000F0A5F838BD0149C86070470000A2
:1001F00000200240F0B50B2706463F04384600F0C9
:1002000065F904280FD1084C206902252843206194
:1002100066612069402108432061384600F056F9A4
:100220002169A9432161F0BD002002400849042052
:10023000CA68D20701D001207047CA68D20601D52A
:1002400002207047C9684907FBD5032070470000AA
:100250000020024010B53520FFF7C6FF00F0E0F89F
:10026000044600F02BF8002811D000F0E9F800F067
:1002700093F80721C9430C43611C02D0E04300F00E
:100280005FF8042801D0012010BD002010BD02201D
:1002900010BD000070B501260446B602064D07E009
:1002A0002046FFF7A7FF042801D0012070BDA41944
:1002B000AC42F5D9002070BD00F8000810B500F080
:1002C000AFF801460720C043884310BD10B500F0C9
:1002D000EDF83520FFF788FF10BD0000F7B582B0BC
:1002E000164604460025114F18E0A8000399009017
:1002F0000958206800F0B4F8042802D0012005B0A5
:10030000F0BD20680399026800980858824201D025
:100310000220F4E72068001D20606D1CB54202D267
:100320002068B842E1D90020E9E70000FBFF00089F
:100330000248016980221143016170470020024098
:10034000F0B5C043C6B20004050E0B20000400F057
:10035000BDF804281BD10E4C2169102211432161E4
:100360000C4FFF2E06D03E810B20000400F0AEF8AB
:10037000042806D1FF2D06D07D810B20000400F05B
:10038000A5F8052803D0226910218A432261F0BD17
:100390000020024000F8FF1FF0B5AA2500F036F853
:1003A000002800D000250B273F04384600F08EF8C7
:1003B000042813D1134C2069202630432061206982
:1003C000402108432061384600F080F810210428BD
:1003D00005D0052802D022698A432261F0BD206938
:1003E000B043206120690E463043206106480580F5
:1003F000384600F06BF80528F0D02169B14321613F
:10040000F0BD00000020024000F8FF1F034900205B
:10041000C9694907890F00D00120704700200240B8
:100420000148006A7047000000200240034801694B
:100430000122520311430161704700000020024075
:1004400004480169890503D4034981600349816037
:10045000704700000020024023016745AB89EFCDC3
:10046000F8B5064600200B273F0400900D4638469D
:1004700000F02CF8042815D10B4C20690121084309
:1004800020613580384600F021F8042806D1B61CDA
:10049000280C00963080384600F018F82169490889
:1004A00049002161F8BD00000020024004480169B4
:1004B000090603D5034941600349416070470000C4
:1004C0000020024023016745AB89EFCD00B503460C
:1004D000FFF7ACFE02E0FFF7A9FE5B1E012803D088
:1004E000002B00D1052000BD002BF4D1FAE7F0B5B8
:1004F0000022012423460D6893401D409D422AD1CD
:100500000D79012D01D0022D12D1876855000326E7
:10051000AE40B74387604E79AE4085682E43866013
:1005200085889D43858085888B7993401D43858090
:10053000066855000323AB409E4306600E790768AA
:10054000AE403E430660C6689E43C660CB79AB4072
:10055000C5682B43C360521C102ACBD3F0BD4B0798
:10056000DB0E9A40C90810B589000818016A0F24EB
:100570009C40A1430162016A1143016210BD08B5AC
:10058000002069460870684600F008FC0028FAD090
:100590006846007808BDFEE710B5012188B08804E0
:1005A00000F01AFA0121880300F022FAFFF78EFE0C
:1005B0000924E406002206212046FFF7D0FF00228E
:1005C00007212046FFF7CBFFC02006900221684696
:1005D000017700248477C4770321417706A90B486B
:1005E000FFF785FFE12005944002019402940394F3
:1005F00000900C20064C04906946204600F07AFDDD
:100600000121204600F064FD08B010BD0004004840
:1006100000380140F3B50024104F81B0264625462E
:1006200039460298FFF764FD019A30301055029167
:100630000A213846641CFFF75BFD07460198001944
:100640002038C07F302801D1002E04D0761C6D1CCC
:100650000A2DE5D3FEBD0024F9E7000000CA9A3B4D
:10066000374800F015FC374800F012FC364800F01F
:100670000FFC364800F00CFC334800F009FC34480D
:1006800000F006FC2E4800F003FC32A000F000FC55
:10069000FFF714FE314C002800D00120206030A06C
:1006A00000F0F6FB3EA000F0F3FB4DA000F0F0FBE5
:1006B0005BA000F0EDFB2068002802D068A000F0ED
:1006C000E7FB77A000F0E4FBFFF759FF312806D0E5
:1006D000322807D0332808D034280FD011E000F09A
:1006E000A5FADCE700F07CFBD9E77D494868A0600B
:1006F0006060096881F308888047D0E72068012896
:1007000006D02068002819D076A000F0C1FBC6E70B
:10071000FFF7A0FD0006000E05D001280CD002282E
:10072000BDD180A0F1E788A000F0B2FB8E4800F0B8
:10073000AFFBFFF77BFEB2E78CA0E6E796A0E4E70D
:10074000F818000814180008C8170008AC180008AA
:10075000601800080D0A0D0A0000000004000020C7
:100760000D0A3D3D3D3D3D3D3D3D3D3D3D3D3D3D1C
:100770003D3D3D3D204D61696E204D656E75203DCE
:100780003D3D3D3D3D3D3D3D3D3D3D3D3D3D3D3D99
:100790003D3D3D3D3D3D3D3D3D3D3D0D0A0A000099
:1007A0002020446F776E6C6F616420496D616765CE
:1007B00020546F207468652053544D33324630788E
:1007C0007820496E7465726E616C20466C61736846
:1007D000202D2D2D2D2D2D2D20310D0A0A0000004C
:1007E000202055706C6F616420496D6167652046FB
:1007F000726F6D207468652053544D3332463078E3
:100800007820496E7465726E616C20466C61736805
:10081000202D2D2D2D2D2D2D20320D0A0A0000000A
:1008200020204578656375746520546865204E65A1
:10083000772050726F6772616D202D2D2D2D2D2D1B
:100840002D2D2D2D2D2D2D2D2D2D2D2D2D2D2D2DD8
:100850002D2D2D2D2D2D2D2D20330D0A0A000000BC
:10086000202044697361626C65207468652077722A
:100870006974652070726F74656374696F6E202D82
:100880002D2D2D2D2D2D2D2D2D2D2D2D2D2D2D2D98
:100890002D2D2D2D2D2D2D2D20340D0A0A0000007B
:1008A0003D3D3D3D3D3D3D3D3D3D3D3D3D3D3D3D78
:1008B0003D3D3D3D3D3D3D3D3D3D3D3D3D3D3D3D68
:1008C0003D3D3D3D3D3D3D3D3D3D3D3D3D3D3D3D58
:1008D0003D3D3D3D3D3D3D3D3D3D0D0A0A00000095
:1008E00000300008496E76616C6964204E756D6257
:1008F00065722021203D3D3E20546865206E756D57
:100900006265722073686F756C642062652065692A
:100910007468657220312C20322C2033206F7220B5
:10092000340D0000466C617368206D656D6F7279DF
:10093000206E6F742077726974652070726F7465B1
:10094000637465640D0A0000577269746520507203
:100950006F74656374696F6E2064697361626C653E
:10096000642E2E2E0D0A0000281700084572726FA3
:10097000723A20466C6173682077726974652075DD
:100980006E70726F74656374696F6E206661696CF6
:1009900065642E2E2E0D0A00496E76616C69642006
:1009A0004E756D6265722021203D3D3E2054686584
:1009B000206E756D6265722073686F756C6420625D
:1009C000652065697468657220312C2032206F7251
:1009D00020330D0070477047044A0029516901D047
:1009E000014300E081435161704700000010024064
:1009F000044A0029916901D0014300E081439161DB
:100A00007047000000100240F8B5334D0446686896
:100A10000C21324E084003D0042801D0082801D010
:100A2000266012E06968686803228902D2030F0F0A
:100A30001040BF1C00281CD0E86A0107090F30468F
:100A4000491CFFF755FB784320606868244B00067B
:100A5000000F1A5C20680146D14061606A68520547
:100A6000520F9A5CD140A1602A6BD20505D41D4A71
:100A700009E01D4847432760E7E76A68520401D44C
:100A80004A0800E08A08E2602A6B5306174A03D43A
:100A9000164B1233236100E022612B6BDB0601D47D
:100AA000666100E060612B6B9B070FD0296B8907A3
:100AB000890F01290CD0286B8007800F022809D0EC
:100AC000286BC043800700D1A661F8BDA161F8BDC5
:100AD000A061F8BDA261F8BD0010024000127A00CA
:100AE00010000020809FD50000093D00008000001C
:100AF0000149C871704700000010024010B503465C
:100B0000002003E01C780C54401C5B1C9042F9D37D
:100B100010BD08B504226946FFF7F0FF00A80130B8
:100B2000FFF70EFB694609780002084308BD70B55F
:100B30000C46054604E0284600F030F9012804D0B0
:100B4000641EF8D20020C04370BD002070BD0000BC
:100B5000F7B5054682B0002008600F466846049944
:100B6000FFF7E5FF002853D168460078182821D008
:100B700006DC012809D0022809D0042848D10DE05C
:100B8000412825D0612843D122E0802401E00124BE
:100B9000A40228700126601D019025E01F4C20460C
:100BA000FFF706FB0021204600F016FB1D491C48FC
:100BB000C86031E068460499FFF7B9FF002827D1E3
:100BC00068460078182823D10020C043386023E00D
:100BD000012005B0F0BDA8190499FFF7A8FF00286F
:100BE00016D1761C0198B6B28642F4D3A8786978FB
:100BF000FF22504081420BD12146E81CFFF7C6FA84
:100C000029190A79CB781102194349BA814202D0D5
:100C10000020C043DDE73C600020DAE70028000840
:100C20000400FA0500ED00E0704700003EB500202A
:100C300000900190029016A000F02AF9234800F0DD
:100C400035FB041E14DD224800F022F9214800F093
:100C50001FF921466846FFF7DDFC1FA000F018F9D8
:100C6000684600F015F91FA000F012F920A008E076
:100C7000601C05D0A01C07D0E41C07D022A000E017
:100C800029A000F005F93EBD37A0FAE73DA0F8E73E
:100C900057616974696E6720666F72207468652099
:100CA00066696C6520746F2062652073656E7420C0
:100CB0002E2E2E20287072657373202761272074D2
:100CC0006F2061626F7274290A0D000020000020FD
:100CD00074170008200400200A0D2053697A653A31
:100CE000200000002042797465730D0A00000000A6
:100CF0002D2D2D2D2D2D2D2D2D2D2D2D2D2D2D2D24
:100D00002D2D2D0A000000000A0D4661696C6564F6
:100D100020746F207265636569766520746865204C
:100D200066696C65210A0D000A0A0D546865206920
:100D30006D6167652073697A6520697320686967EA
:100D4000686572207468616E2074686520616C6CDF
:100D50006F776564207370616365206D656D6F7278
:100D600079210A0D000000000A0A0D5665726966B5
:100D700069636174696F6E206661696C6564210ADC
:100D80000D0000000D0A0A41626F727465642062F2
:100D90007920757365722E0A0D00000070B5074D3D
:100DA00004462021284600F09DF9002804D028465A
:100DB00000F0F8F92070012070BD000000380140FB
:100DC00010B5064C0146204600F0F0F9802120467F
:100DD00000F088F90028F9D010BD0000003801406B
:100DE00010B50AA000F054F8FFF7C9FB43280CD156
:100DF0000D2212030CA1124800F024FB002801D0A0
:100E000010A000E01AA000F043F810BD0A0A0D532C
:100E1000656C656374205265636569766520466913
:100E20006C650A0D0000000055706C6F61646564AC
:100E3000466C617368496D6167652E62696E00007A
:100E4000003000080A0D4572726F72204F6363759F
:100E500072726564207768696C65205472616E7384
:100E60006D697474696E672046696C650A0D0000CF
:100E70000A0D46696C652075706C6F61646564204D
:100E80007375636365737366756C6C79200A0D0006
:100E900010B5044602E0FFF793FF641C2078002899
:100EA000F9D110BD1CB500212248019100910268C2
:100EB00001231B041A4302605B000522120304682D
:100EC0001C400094019C641C0194009C002C02D1E5
:100ED000019C9442F3D10268920328D5012100912C
:100EE000154A1121116041684160416841604168C3
:100EF0007F22D203914341604168112212041143C1
:100F000041600168012212061143016001688901F4
:100F1000FCD541688908890041604168022211437B
:100F2000416041680907890F0229FAD11CBD00916F
:100F30001CBD0000001002400020024038B5002017
:100F4000184C00902068012109048843206016494C
:100F500011200860606860606068606060687F2180
:100F6000C9038843606060680521C9040843606064
:100F70000520FFF7BDFD2068012109060843206018
:100F800020688001FCD5606880088000606060682F
:100F900002210843606060680007800F0228FAD1D0
:100FA00038BD0000001002400020024070B5002251
:100FB00004781346302C2FD14478782C01D0582C4B
:100FC0002AD18278002A25D00224025D002A11D07D
:100FD0001546413D052D06D91646613E052E02D91E
:100FE0003136092E13D81E011346303B092B04D885
:100FF0001A4607E001200B600AE0052D01D8373AB8
:1010000000E0573AB318641C0B2CDED302E000203A
:101010000B2C00D3002070BD845C002C04D06B2C02
:1010200004D04B2C02D007E00B6003E0002A03D071
:10103000980208E0012015E06D2C01D04D2C04D160
:10104000002A02D018050860F4E72546303D092D36
:1010500007D80A256B43303BE318521C0B2ADBD31D
:10106000D8E700200B2AD5D270BD704710B51448C0
:1010700001680122114301604168124A1140416038
:101080000168114A114001600168012292049143F4
:10109000016041683F22120491434160C16A09091D
:1010A0000901C162016BFF22543291430163416B1C
:1010B00049084900416300218160FFF7F3FE10BD3C
:1010C000001002400CB8FFF8FFFFF6FE0162704707
:1010D0000029016802D00122114301E049084900BA
:1010E000016070470246D26900200A4200D0012008
:1010F0007047000070B50446006888B00D4640088F
:10110000400020606168032000038143A868084311
:10111000606021682148EA680140686810432A69D4
:101120000A4310432060A0680321090288436969CB
:101130000143A1606846FFF767FC1948844201D16A
:10114000069800E0029821680904296801D5490041
:1011500000E0890019225043FEF7CAFF05466421CA
:10116000FEF7C6FF06013009642148432168281AAA
:10117000090407D5C00064213230FEF7B9FF4007EB
:10118000400F06E0000164213230FEF7B1FF000796
:10119000000F3043A08108B070BD0000F3E9FFFFED
:1011A00000380140808CC005C00D7047C905C90DCD
:1011B00001857047074AFF31013140004900CB05E6
:1011C00000D5401CC30300D55040CB03F5D580B2F9
:1011D000704700002110000070B50C460546FFF76F
:1011E00065F92420FFF700F821462846FFF738F973
:1011F0003520FEF7F9FFFFF79BF870BDFEB50546F9
:101200000120002628706E70FF20A870344603E08D
:101210002B19641CD870A4B2085D002801D0FF2CE3
:10122000F6D92819C67068461168FFF7F3F900204F
:10123000241DA1B26A4604E0401C6B54491C80B2D4
:1012400089B2135C002BF7D102E06E54491C89B2BD
:101250008329FAD3FEBD70B50125AD02AB4201D39F
:101260002C4600E08024A34200D323469BB2AC422C
:1012700001D1022500E001250D704A70D2438A7029
:101280000322DD1C04E006788E54521C92B2401CEE
:10129000AA42F8D3A34208D81A22A8B2E41C02E05A
:1012A0000A54401C80B2A042FAD370BDF0B5FFB022
:1012B000FFB093B004460021FFA801625749C16204
:1012C000002101630E4603AD019100270122FFA911
:1012D000120518312846FFF73BFC002812D00128E0
:1012E00078D00198002800DD761C052E73DD1820CB
:1012F000FFF766FD1820FFF763FD00207FB07FB089
:1013000013B0F0BDFFA882690026531C08D0012B42
:1013100008D06846407BF9B288420BD015207AE0AD
:101320000620E8E70620FFF74BFDFFA8006B00282A
:10133000CBD05CE0002F17D0E91C2046FEF7EEFE74
:10134000FFA8806921460004820CFFA82C30FEF71C
:10135000C5FF00284ED01820FFF732FD1820FFF7F8
:101360002FFD0120C043C9E76846C07B00283BD061
:101370000020E91C03E02A4B1A54401C491C0A783F
:10138000002A01D0FF28F6DD254B00221A54104612
:1013900003E0FFAB34331A54401C491C0A78202A5E
:1013A00001D00F28F5DBFFAA002134321154FFA928
:1013B00020311046FFF7FAFDFFA8006A194988425C
:1013C0000AD91820FFF7FCFC1820FFF7F9FC0020D1
:1013D000C04393E715E01DE01048FEF75BFF0620D1
:1013E000FFF7EEFC432006E00620FFF7E9FCFFA82C
:1013F000006A83E70620FFF7E3FC01207F1C0190D1
:1014000064E71820FFF7DCFC1820FFF7D9FC022066
:10141000C04373E74320FFF7D3FC57E700300008D1
:101420002004002001D0000070B50D4606460024BF
:1014300004E0305DFFF7C4FC641CA4B2AC42F8D3F6
:1014400070BD0000F7B5FFB0FFB0C8B00A46002479
:10145000FFA920461C31135C0B54401CC0B2FF286E
:10146000F9D38C4A6E4601256A443046FFF7C6FE22
:1014700083213046FFF7D8FF05E083216846FFF758
:10148000D3FF002D0AD000A880210330FEF77EFE96
:101490000646000AFFF794FCF0B204E000A88021A1
:1014A0000330FEF769FEFFF78BFCFFA87A490C308A
:1014B000FFF73DFB002803D0641C0A2CDDD3E2E0DB
:1014C000FFA8007B0628F8D10A2CF8D2734868449C
:1014D0008169FFA80161FF300530046A0121FFA87E
:1014E000416157E0FFA840692346C2B2FFA86946A0
:1014F0000069FFF7B0FE0021FFA801730F46012627
:10150000B602B44200D28026F11C6846FFF78CFF79
:10151000002D314668460BD0C01CFEF737FEFFA9F0
:101520008861000AFFF74CFCFFA98869C0B202E09D
:10153000C01CFEF721FEFFF743FCFFA856490C3004
:10154000FFF7F5FA002803D07F1C0A2FD7D31FE03E
:10155000FFA8007B0628F8D1FFA80069B44211D982
:101560008119FFA801614069A41B342805D0FFA997
:101570004869401C80B2486108E0FF207FB07FB01E
:101580004BB0F0BD8119FFA8002401610A2F01D3DF
:10159000F8B2F3E7002CA5D10026FFA80673404F50
:1015A0003546467334460420FFF70AFC3C48FFF7F3
:1015B000F9FDC0B2FFA90873062807D008213848F2
:1015C000641CFFF783FD002E33D003E0082138466A
:1015D000FFF77CFD0A2C56D2FFA805734573012046
:1015E000694608704D70FF200024887003206D4606
:1015F00000212954401CC0B28328F9D3264E8321F0
:101600002846FFF711FF8021E81CFEF7BFFD0746C3
:10161000000AFFF7D5FBF8B2FFF7D2FBFFA831466F
:101620000D30FFF784FA002806D0641C0A2CE6D39C
:1016300029E00A2CB7D326E0FFA8407B0628F5D185
:1016400001250A2C1FD20020FFA9154F0873042082
:10165000FFF7B6FBFFA831460C30FFF768FA002809
:1016600003D1FFA8007B062807D008213846641C58
:10167000FFF72CFD002D08D003E008213846FFF7C6
:1016800025FD0A2C04D3E0B278E70A2CDFD3FAE771
:10169000002073E72005000040420F000005000015
:1016A0000038014002E008C8121F08C1002AFAD120
:1016B00070477047002001E001C1121F002AFBD1D2
:1016C00070470000FFF73AFCFEF7F0FE1048FFF706
:1016D00020FA10490860411C02D0002805D015E00E
:1016E000FEF75AFFFEF7BCFF10E00B4801680B4AFB
:1016F000114001225207914208D14168084A116005
:10170000084A1160006880F308888847FEE70000F7
:101710000028000800000020003000080000FE2F14
:101720000C000020080000202E2E2E616E64206127
:101730002053797374656D205265736574207769E1
:101740006C6C2062652067656E65726174656420EB
:10175000746F2072656C6F616420746865206E65BB
:1017600077206F7074696F6E2062797465730D0AEB
:10177000000000000A0A0D2050726F6772616D6DE3
:10178000696E6720436F6D706C6574656420537576
:10179000636365737366756C6C79210A0D2D2D2D4D
:1017A0002D2D2D2D2D2D2D2D2D2D2D2D2D2D2D2D69
:1017B0002D2D2D2D2D2D2D2D2D2D2D2D2D0D0A20A9
:1017C0004E616D653A2000000D0A3D20202020204A
:1017D0002020202020202020202020202020202009
:1017E00020202020202020202020202020202020F9
:1017F00020202020202020202020202020202020E9
:101800002020202020202020202020202020203DBB
:10181000000000000D0A3D20202020202020202054
:10182000202020202028432920434F505952494747
:10183000485420323031322053544D6963726F6501
:101840006C656374726F6E696373202020202020A2
:1018500020202020202020202020203D00000000EB
:101860000D0A3D2020202020202020202020202084
:101870002020202020202020202020202020202068
:101880002020202020204279204D434420417070A8
:101890006C69636174696F6E205465616D202020EE
:1018A000202020202020203D000000000D0A3D20A7
:1018B0002053544D33324630787820496E2D417094
:1018C000706C69636174696F6E2050726F677261CA
:1018D0006D6D696E67204170706C69636174696FCA
:1018E0006E20202856657273696F6E20312E302E5F
:1018F0003029203D000000000D0A3D3D3D3D3D3DAD
:101900003D3D3D3D3D3D3D3D3D3D3D3D3D3D3D3D07
:101910003D3D3D3D3D3D3D3D3D3D3D3D3D3D3D3DF7
:101920003D3D3D3D3D3D3D3D3D3D3D3D3D3D3D3DE7
:101930003D3D3D3D3D3D3D3D3D3D3D3D3D3D3D3DD7
:1019400000000000641900080000002020000000D2
:10195000A4160008841900082000002000090000D7
:10196000B4160008000000000000000000000000A5
:101970000000000000000000010203040102030453
:041980000607080945
:04000005080000C12E
:00000001FF
