:020000040800F2
:1000000020090020D5000008D9090008990500083A
:1000100000000000000000000000000000000000E0
:10002000000000000000000000000000250C000897
:100030000000000000000000DB0900085910000863
:10004000E7000008E7000008E7000008E7000008F4
:10005000E7000008E7000008E7000008E7000008E4
:10006000E7000008E7000008E7000008E7000008D4
:10007000E7000008E7000008E7000008E7000008C4
:10008000E7000008E700000800000000E7000008A3
:10009000E7000008E7000008E7000008E7000008A4
:1000A000E7000008E7000008E7000008E700000894
:1000B000E700000800000000E70000080000000062
:1000C0000348854600F046F800480047B11600088E
:1000D000200900200448804704480047FEE7FEE767
:1000E000FEE7FEE7FEE7FEE75D100008C10000083E
:1000F00030B50B46014600202022012409E00D46C0
:10010000D5409D4205D31D469540491B2546954047
:1001100040191546521E002DF1DC30BD03460B433D
:100120009B0703D009E008C9121F08C0042AFAD2AD
:1001300003E00B780370401C491C521EF9D2704733
:100140000321001D401E037812021A43491EF9D5EF
:1001500010467047064C0125064E05E0E36807CCC3
:100160002B430C3C98471034B442F7D3FFF7ACFF55
:1001700088190008A81900080022411802E0037835
:100180009A18401C8842FAD3D0B2704730B5044662
:100190000020651803E02178641C01F003F8AC42EC
:1001A000F9D3002100F0FEFF002100F0FBFF30BD7D
:1001B00038B5054604206946087000F071F935200D
:1001C00000F012F8002408E0284600F013F8694611
:1001D0000870641C2406240E03D1684600780428A5
:1001E000F2D000F09FF838BD0149C86070470000A8
:1001F00000200240F0B50B2706463F04384600F0C9
:100200005FF904280FD1084C20690225284320619A
:1002100066612069402108432061384600F050F9AA
:100220002169A9432161F0BD002002400849042052
:10023000CA68D20701D001207047CA68D20601D52A
:1002400002207047C9684907FBD5032070470000AA
:100250000020024010B53520FFF7C6FF00F0DAF8A5
:10026000044600F02BF8002811D000F0E3F800F06D
:100270008DF80721C9430C43611C02D0E04300F014
:1002800059F8042801D0012010BD002010BD022023
:1002900010BD000070B501250446AD02064E07E012
:1002A0002046FFF7A7FF042801D0012070BD641984
:1002B000B442F5D9002070BD00F8000810B500F078
:1002C000A9F801460720C043884310BD10B500F0CF
:1002D000E7F83520FFF788FF10BD0000F7B50F469F
:1002E0000446002513E0AE00B959206800F0B2F8CA
:1002F000042801D00120FEBD2068B9590068884259
:1003000001D00220FEBD2068001D20606D1C0298F7
:10031000854203D2216802488142E4D90020FEBD13
:10032000FBFF000802480169802211430161704708
:1003300000200240F0B5C043C5B20004040E0B20FB
:10034000000400F0BDF804281BD10E4E31691022C4
:10035000114331610C4FFF2D06D03D810B2000046D
:1003600000F0AEF8042806D1FF2C06D07C810B20CB
:10037000000400F0A5F8052803D03169102291434C
:100380003161F0BD0020024000F8FF1FF0B5AA2443
:1003900000F036F8002800D000240B273F04384630
:1003A00000F08EF8042813D1134D2869202630431D
:1003B00028612869402108432861384600F080F808
:1003C0001021042805D0052802D02A698A432A6111
:1003D000F0BD2869B043286128690E463043286182
:1003E00006480480384600F06BF80528F0D02969EB
:1003F000B1432961F0BD00000020024000F8FF1F5A
:1004000003490020C9694907890F00D001207047BE
:10041000002002400148006A7047000000200240AE
:100420000348016901225203114301617047000032
:100430000020024004480169890503D40349816012
:100440000349816070470000002002402301674596
:10045000AB89EFCDF8B5064600200B273F0400908E
:100460000D46384600F02CF8042815D10B4C2069B5
:100470000121084320613580384600F021F8042826
:1004800006D1B61C290C00963180384600F018F8C9
:100490002169490849002161F8BD0000002002409F
:1004A00004480169090603D50349416003494160D5
:1004B000704700000020024023016745AB89EFCD63
:1004C00000B50346FFF7B2FE02E0FFF7AFFE5B1E8A
:1004D000012803D0002B00D1052000BD002BF4D152
:1004E000FAE7F0B50022032501230C6893401C4075
:1004F0009C422AD10C79012C01D0022C12D18768A0
:1005000054002E46A640B74387604E79A6408468C3
:100510002643866084889C43848084888B799340BA
:100520001C438480066853002C469C40A64306600A
:100530000E7907689E403E430660C668A643C660C3
:10054000CC799C40C3681C43C460521C102ACBD396
:10055000F0BD4B07DB0E9A40C90810B5890008189A
:10056000016A0F249C40A1430162016A11430162A8
:1005700010BD0246128A00200A4200D001207047B6
:1005800008B5002069460870684600F005FC0028A0
:10059000FAD06846007808BDFEE7000010B50121DA
:1005A00088B0880400F01AFA0121880300F022FACA
:1005B000FFF78CFE0924E406002206212046FFF7FF
:1005C000C8FF002207212046FFF7C3FFC020069086
:1005D00002206946087700248C77CC77032048777F
:1005E00006A90B48FFF77DFFE12005944002019426
:1005F0000294039400900C20064C04906946204617
:1006000000F070FD0121204600F05AFD08B010BD39
:100610000004004800380140F3B50024104F81B0B9
:100620002546264639460298FFF762FD019A30308A
:10063000105502910A213846641CFFF759FD074600
:10064000019800192038C07F302801D1002D04D036
:100650006D1C761C0A2EE5D3FEBD0024F9E70000D0
:1006600000CA9A3B374800F011FC374800F00EFCF6
:10067000364800F00BFC364800F008FC334800F028
:1006800005FC344800F002FC2E4800F0FFFB32A0CD
:1006900000F0FCFBFFF712FE314C002800D00120D7
:1006A000206030A000F0F2FB3EA000F0EFFB4DA078
:1006B00000F0ECFB5BA000F0E9FB2068002802D012
:1006C00068A000F0E3FB77A000F0E0FBFFF758FF25
:1006D000312806D0322807D0332808D034280FD04C
:1006E00011E000F0A1FADCE700F078FBD9E77D49E2
:1006F0004868A0606060096881F308888047D0E797
:100700002068012806D02068002819D076A000F0C3
:10071000BDFBC6E7FFF79EFD0006000E05D00128D1
:100720000CD00228BDD180A0F1E788A000F0AEFB7C
:100730008E4800F0ABFBFFF773FEB2E78CA0E6E754
:1007400096A0E4E73C190008581800080C180008A7
:10075000F0180008A41800080D0A0D0A0000000097
:10076000040000200D0A3D3D3D3D3D3D3D3D3D3DEC
:100770003D3D3D3D3D3D3D3D204D61696E204D651A
:100780006E75203D3D3D3D3D3D3D3D3D3D3D3D3D4D
:100790003D3D3D3D3D3D3D3D3D3D3D3D3D3D3D0DB9
:1007A0000A0A00002020446F776E6C6F6164204954
:1007B0006D61676520546F207468652053544D3314
:1007C000324630787820496E7465726E616C2046CE
:1007D0006C617368202D2D2D2D2D2D2D20310D0AAE
:1007E0000A000000202055706C6F616420496D6123
:1007F00067652046726F6D207468652053544D33D1
:10080000324630787820496E7465726E616C20468D
:100810006C617368202D2D2D2D2D2D2D20320D0A6C
:100820000A000000202045786563757465205468CF
:1008300065204E65772050726F6772616D202D2D97
:100840002D2D2D2D2D2D2D2D2D2D2D2D2D2D2D2DD8
:100850002D2D2D2D2D2D2D2D2D2D2D2D20330D0A12
:100860000A000000202044697361626C652074688E
:10087000652077726974652070726F74656374693E
:100880006F6E202D2D2D2D2D2D2D2D2D2D2D2D2D22
:100890002D2D2D2D2D2D2D2D2D2D2D2D20340D0AD1
:1008A0000A0000003D3D3D3D3D3D3D3D3D3D3D3D62
:1008B0003D3D3D3D3D3D3D3D3D3D3D3D3D3D3D3D68
:1008C0003D3D3D3D3D3D3D3D3D3D3D3D3D3D3D3D58
:1008D0003D3D3D3D3D3D3D3D3D3D3D3D3D3D0D0AAB
:1008E0000A00000000300008496E76616C696420DF
:1008F0004E756D6265722021203D3D3E2054686535
:10090000206E756D6265722073686F756C6420620D
:10091000652065697468657220312C20322C203383
:10092000206F7220340D0000466C617368206D6585
:100930006D6F7279206E6F742077726974652070A4
:10094000726F7465637465640D0A00005772697490
:10095000652050726F74656374696F6E206469738B
:1009600061626C65642E2E2E0D0A00006C17000863
:100970004572726F723A20466C61736820777269B3
:10098000746520756E70726F74656374696F6E2024
:100990006661696C65642E2E2E0D0A00496E7661C3
:1009A0006C6964204E756D6265722021203D3D3E6C
:1009B00020546865206E756D6265722073686F756E
:1009C0006C642062652065697468657220312C2032
:1009D00032206F7220330D0070477047044A00299F
:1009E000516901D0014300E081435161704700002B
:1009F00000100240044A0029916901D0014300E03F
:100A0000814391617047000000100240F8B5334EF9
:100A1000044670680C21324D084003D0042801D0F0
:100A2000082801D0256012E07168706803228902ED
:100A3000D2030F0F1040BF1C00281CD0F06A010722
:100A4000090F2846491CFFF753FB78432060706864
:100A5000244B0006000F1A5C20680146D1406160FB
:100A600072685205520F9A5CD140A160326BD20578
:100A700005D41D4A09E01D4847432760E7E772682F
:100A8000520401D44A0800E08A08E260326B184B35
:100A9000520603D4164A1232226100E02361326BFF
:100AA000D20601D4656100E06061326B92070FD01D
:100AB000316B8907890F01290CD0306B8007800FBB
:100AC000022809D0306BC043800700D1A561F8BD72
:100AD000A161F8BDA061F8BDA361F8BD001002409E
:100AE00000127A0010000020809FD50000093D0010
:100AF000008000000149C8717047000000100240EA
:100B000010B50346002003E01C780C54401C5B1C0D
:100B10009042F9D310BD08B504226946FFF7F0FFF3
:100B200000A80130FFF70CFB694609780002084372
:100B300008BD70B50C46054604E0284600F02CF9C7
:100B4000012804D0641EF8D20020C04370BD0020EC
:100B500070BD0000F7B582B0054603980021016022
:100B600068460499FFF7E5FF00284ED168460278F1
:100B7000182A1CD006DC012A09D0022A09D0042A2E
:100B800043D10CE0412A20D0612A3ED11DE08026CD
:100B900001E00126B60201242A70771D20E0002121
:100BA0001D4800F011FB1E491C48C86032E0049942
:100BB000FFF7BFFF002828D168460078182824D105
:100BC00000200399C043086024E0012005B0F0BD77
:100BD00028190499FFF7ADFF002816D1641CA4B2B0
:100BE000BC42F5D3A8786978FF22504081420CD1ED
:100BF0003146E81CFFF7CAFA0146A8190279C37802
:100C00001002184342BA8A4202D00020C043DDE7F6
:100C1000039806600020D9E7002800080400FA05C0
:100C200000ED00E0704700003EB50020009001900C
:100C3000029016A000F02AF9234800F02FFB041EB2
:100C400014DD224800F022F9214800F01FF9214666
:100C50006846FFF7E1FC1FA000F018F9684600F0B5
:100C600015F91FA000F012F920A008E0601C05D0C3
:100C7000A01C07D0E41C07D022A000E029A000F0AF
:100C800005F93EBD37A0FAE73DA0F8E75761697462
:100C9000696E6720666F72207468652066696C658E
:100CA00020746F2062652073656E74202E2E2E20B6
:100CB0002870726573732027612720746F2061622A
:100CC0006F7274290A0D000020000020B817000878
:100CD000200400200A0D2053697A653A20000000A4
:100CE0002042797465730D0A000000002D2D2D2D12
:100CF0002D2D2D2D2D2D2D2D2D2D2D2D2D2D2D0A47
:100D0000000000000A0D4661696C656420746F2064
:100D100072656365697665207468652066696C65CF
:100D2000210A0D000A0A0D54686520696D61676526
:100D30002073697A65206973206869676865722025
:100D40007468616E2074686520616C6C6F7765648F
:100D5000207370616365206D656D6F7279210A0D76
:100D6000000000000A0A0D566572696669636174C5
:100D7000696F6E206661696C6564210A0D00000070
:100D80000D0A0A41626F727465642062792075737E
:100D900065722E0A0D00000070B5074D0446202133
:100DA000284600F097F9002804D0284600F0F2F910
:100DB0002070012070BD00000038014010B5064CC5
:100DC0000146204600F0EAF98021204600F082F931
:100DD0000028F9D010BD00000038014010B50AA06D
:100DE00000F054F8FFF7CCFB43280CD10D2212037E
:100DF0000CA1124800F01EFB002801D010A000E05A
:100E00001AA000F043F810BD0A0A0D53656C656323
:100E10007420526563656976652046696C650A0DC4
:100E20000000000055706C6F61646564466C61730E
:100E300068496D6167652E62696E000000300008C8
:100E40000A0D4572726F72204F636375727265642A
:100E5000207768696C65205472616E736D69747473
:100E6000696E672046696C650A0D00000A0D4669C7
:100E70006C652075706C6F61646564207375636365
:100E800065737366756C6C79200A0D0010B50446A5
:100E900002E0FFF793FF641C20780028F9D110BD11
:100EA0001CB500232248009301930168012212041B
:100EB0001143016051000524240302680A40019295
:100EC000009A521C0092019A002A02D1009AA24272
:100ED000F3D10168890328D501210191154A112117
:100EE0001160416841604168416041687F22D203DE
:100EF000914341604168112212041143416001682D
:100F0000012212061143016001688901FCD5416884
:100F100089088900416041680222114341604168AB
:100F20000907890F0229FAD11CBD01931CBD0000DD
:100F300000100240002002401CB50020184C009018
:100F4000019020680121090488432060154911207F
:100F50000860606860606068606060687F21C903E5
:100F60008843606060680521C9040843606005200B
:100F7000FFF7C0FD206801210906084320602068B2
:100F80008001FCD560688008800060606068022194
:100F90000843606060680007800F0228FAD11CBD1A
:100FA000001002400020024070B5002302781C4669
:100FB000302A2DD14278782A01D0582A28D1827837
:100FC000002A23D00223C25C002A11D01546413DDD
:100FD000052D06D91646613E052E02D93136092E59
:100FE00038D826011446303C092C03D8224606E0A6
:100FF0000C6018E0052D01D8373A00E0573AB418D4
:101000005B1C0B2BDFD301E00B2B00D3002070BD4A
:10101000C25C002AECD06B2A01D04B2A05D1002BF0
:1010200003D0A00208E00120EEE76D2A01D04D2A8E
:1010300004D1002B02D020050860F4E71546303DAE
:10104000092D07D80A256C43303C14195B1C0B2B67
:10105000DED3DBE70020D7E77047000010B5144867
:1010600001680122114301604168124A1140416048
:101070000168114A11400160016801229204914304
:10108000016041683F22120491434160C16A09092D
:101090000901C162016BFF22543291430163416B2C
:1010A00049084900416300218160FFF7F9FE10BD46
:1010B000001002400CB8FFF8FFFFF6FE0162704717
:1010C0000029016802D00122114301E049084900CA
:1010D000016070470246D26900200A4200D0012018
:1010E0007047000070B50446006888B00D4640089F
:1010F000400020606068032109038843A968014318
:10110000616020682149EA680840696811432A69DA
:10111000024311432160A0680321090288436969E1
:101120000143A1606846FFF771FC1948844201D170
:10113000069800E0029821680904296801D5490051
:1011400000E0890019225043FEF7D2FF06466421D1
:10115000FEF7CEFF05012809642148432168301AB3
:10116000090407D5C00064213230FEF7C1FF4007F3
:10117000400F06E0000164213230FEF7B9FF00079E
:10118000000F2843A08108B070BD0000F3E9FFFF05
:1011900000380140808CC005C00D7047C905C90DDD
:1011A00001857047074AFF31013140004900CB05F6
:1011B00000D5401CC30300D55040CB03F5D580B209
:1011C000704700002110000070B50C460546FFF77F
:1011D00067F92420FFF708F821462846FFF73AF977
:1011E0003520FFF701F8FFF79DF870BDFEB5054605
:1011F0000120002628706E70FF20A870344603E09E
:101200002B19641CD870A4B2085D002801D0FF2CF3
:10121000F6D92819C67068461168FFF7FDF9002154
:10122000241DA0B26B4604E0491C2A54401C89B21C
:1012300080B25A5C002AF7D102E02E54401C80B2E2
:101240008328FAD3FEBD70B50126B602B34201D39E
:10125000344600E08024A34200D323469DB2B4422A
:1012600001D1022300E001230B704A70D2438A703F
:101270000322EB1C04E006788E54521C92B2401CF0
:101280009A42F8D3A54208D81A2298B2E41C02E088
:101290000A54401C80B2A042FAD370BDF1B5FFB031
:1012A000FFB08EB000200090584802900020FFA9A7
:1012B00006460746C8610025FFA98D61486B086294
:1012C000012203AC120501A92046FFF743FC0028C8
:1012D00011D0012875D0002F00DD761C052E71DDA0
:1012E0001820FFF76BFD1820FFF768FD00207FB086
:1012F0007FB00FB0F0BD019A00261046521C08D0F6
:10130000012A08D06946497BEAB2914207D01520EC
:101310006DE00620E8E70620FFF750FD6EE0002DA7
:1013200018D00246FFA8E11C006AFEF7F7FEFFA8EE
:10133000416B01980004820C02A8FEF7CFFF002841
:1013400045D01820FFF73AFD1820FFF737FD0120A0
:10135000C043CCE76846C07B002834D000222C492B
:10136000E41C02E08854521C641C2078002801D040
:10137000FF2AF7DD00238B54FFA81946243001E033
:101380004254491C641C2278202A01D00F29F7DB23
:1013900043546946FFF708FE1E490098884208D961
:1013A0001820FFF70BFD1820FFF708FD0020C043B1
:1013B0009DE71648FEF76EFF0620FFF7FFFC43206F
:1013C00006E00AE012E00620FFF7F8FC1BE006202A
:1013D000FFF7F4FC01276D1C0BE01820FFF7EEFC73
:1013E0001820FFF7EBFC0220C04380E74320FFF703
:1013F000E5FCFFA88069002800D161E7FFA8C0696B
:10140000002800D157E7009871E70000003000087D
:101410002004002001D0000070B50D4606460024CF
:1014200004E0305DFFF7CAFC641CA4B2AC42F8D300
:1014300070BD0000F7B5FFB0FFB00024CAB00A4687
:10144000FFA9264620462031135C0B54401CC0B235
:10145000FF28F9D30120FFAA5061FF322D326846E0
:10146000FFF7C4FE83216846FFF7D6FFFFA8406957
:1014700000280AD000A880210330FEF787FE054629
:10148000000AFFF79BFCE8B204E000A880210330CB
:10149000FEF772FEFFF792FCFFA87A490C30FFF7C7
:1014A00048FB002803D0641C002E0ED003E0FFA8E8
:1014B000007B0628F8D10A2C09D27348FFA968449A
:1014C000076A856A012008615CE00A2CCAD3D0E073
:1014D000FFA800692B46C2B269463846FFF7B3FE43
:1014E0000020FFA9C861087306460124A402A54292
:1014F00000D28024E11C6846FFF78EFFFFA84069F8
:101500002146002868460BD0C01CFEF73FFEFFA90D
:101510008861000AFFF752FCFFA88069C0B202E0B0
:10152000C01CFEF729FEFFF749FCFFA855490C3007
:10153000FFF7FFFA002805D0761CFFA8C069002835
:101540001DD018E0FFA8007B0628F6D1A54210D9CF
:10155000FFA800693F192D1B342805D0FFA9086991
:10156000401C80B2086106E0FF207FB07FB04DB024
:10157000F0BD3F1900250A2E04D3F0B2F5E70A2E7C
:10158000B3D3FAE7002DA3D10026FFA806733F4F7F
:101590003546467334460420FFF710FC3846FFF703
:1015A000F9FDC0B2FFA90873062837D0641C0821D2
:1015B0003648FFF783FD002E32D00A2C59D2FFA9FE
:1015C0000D734D7301206946087000264D70FF2091
:1015D00088703446032000220A54401CC0B283287D
:1015E000F9D3FFAF0C376D4683212846FFF714FF70
:1015F0008021E81CFEF7CAFD0546000AFFF7DEFB66
:10160000E8B2FFF7DBFB1F4D781C2946FFF791FA84
:10161000002808D0641C002E1BD009E00126C6E774
:101620000A2CB8D325E0FFA8407B0628F3D1012679
:101630000A2C1ED20020FFA9144F08730420FFF7C4
:10164000BDFBFFA829460C30FFF773FA002803D032
:1016500006E00A2CC7D30CE0FFA8007B06280AD0BE
:10166000641C08213846FFF729FD002E05D00A2CFE
:1016700006D3E0B279E70126F3E70A2CDED3F8E7D8
:10168000002072E740420F000005000000380140D2
:1016900002E008C8121F08C1002AFAD1704770473B
:1016A000002001E001C1121F002AFBD17047000099
:1016B0001CB5FFF741FC01218805FFF78FF90120D8
:1016C000009003206946487100200871204FC871BE
:1016D0003846FEF706FFFEF7E3FE1E48FFF71BFA4B
:1016E0001D4E3060012000252C46009008E0641C4F
:1016F000E4B2322C12D80020401CC0B23228FBD3F6
:1017000038460099FEF735FFA842F0D0322C05D8B4
:101710003068411C02D0002808D018E00D48FEF7C0
:1017200047FDFEF73BFFFEF79DFF10E00B49086801
:101730000B4A104001225207904208D14868094ADA
:101740001060094A1060096881F308888047FEE745
:1017500000140048002800080000002000300008A5
:101760000000FE2F0C000020080000202E2E2E610D
:101770006E6420612053797374656D2052657365C2
:10178000742077696C6C2062652067656E65726194
:1017900074656420746F2072656C6F616420746876
:1017A00065206E6577206F7074696F6E2062797442
:1017B00065730D0A000000000A0A0D2050726F6761
:1017C00072616D6D696E6720436F6D706C657465D5
:1017D00064205375636365737366756C6C79210A55
:1017E0000D2D2D2D2D2D2D2D2D2D2D2D2D2D2D2D49
:1017F0002D2D2D2D2D2D2D2D2D2D2D2D2D2D2D2D19
:101800002D0D0A204E616D653A2000000D0A3D2025
:1018100020202020202020202020202020202020C8
:1018200020202020202020202020202020202020B8
:1018300020202020202020202020202020202020A8
:101840002020202020202020202020202020202098
:101850002020203D000000000D0A3D2020202020F7
:1018600020202020202020202028432920434F50C2
:1018700059524947485420323031322053544D692F
:1018800063726F656C656374726F6E696373202039
:101890002020202020202020202020202020203D2B
:1018A000000000000D0A3D202020202020202020C4
:1018B0002020202020202020202020202020202028
:1018C000202020202020202020204279204D434429
:1018D000204170706C69636174696F6E205465613A
:1018E0006D202020202020202020203D000000000E
:1018F0000D0A3D202053544D33324630787820492C
:101900006E2D4170706C69636174696F6E205072E6
:101910006F6772616D6D696E67204170706C69638D
:101920006174696F6E20202856657273696F6E202E
:10193000312E302E3029203D000000000D0A3D3DA3
:101940003D3D3D3D3D3D3D3D3D3D3D3D3D3D3D3DC7
:101950003D3D3D3D3D3D3D3D3D3D3D3D3D3D3D3DB7
:101960003D3D3D3D3D3D3D3D3D3D3D3D3D3D3D3DA7
:101970003D3D3D3D3D3D3D3D3D3D3D3D3D3D3D3D97
:101980003D3D3D3D00000000A8190008000000207A
:101990002000000090160008C81900082000002050
:1019A00000090000A0160008000000000000000070
:1019B000000000000000000000000000010203041D
:0819C0000102030406070809F7
:04000005080000C12E
:00000001FF
